:100000000C944D000C946C000C946C000C946C00DF
:100010000C946C000C946C000C946C000C946C00B0
:100020000C946C000C946C000C946C000C946C00A0
:100030000C946C000C94BC000C946C000C946C0040
:100040000C946C000C946C000C946C000C946C0080
:100050000C946C000C946C000C946C000C946C0070
:100060000C946C000C946C000C946C000C946C0060
:100070000C946C000C946C000C946C000C946C0050
:100080000C946C000C946C000C946C009C01A80106
:10009000D401000237024B02740211241FBECFEFBD
:1000A000D0E4DEBFCDBF11E0A0E0B1E0E0EFF6E0CC
:1000B00000E00BBF02C007900D92A231B107D9F743
:1000C00021E0A2E1B1E001C01D92AA31B207E1F73F
:1000D0000E9441030C9476030C940000CF93DF93AD
:1000E000CDB7DEB781E890E02BE0FC01208388E803
:1000F00090E02DE730E0FC01318320838FE690E033
:1001000022E0FC01208384E890E0FC01118210824F
:100110008091000190910101A0910201B091030131
:100120008093130190931401A0931501B0931601CD
:100130008FE590E02FE530E0F90120812068FC0197
:1001400020830000DF91CF910895CF93DF93CDB747
:10015000DEB781E890E0FC0110820000DF91CF91D2
:100160000895CF93DF93CDB7DEB781E0809312017E
:100170000000DF91CF9108951F920F9200905F00D1
:100180000F92112400905B000F922F933F934F9397
:100190005F936F937F938F939F93AF93BF93EF93EF
:1001A000FF93CF93DF93CDB7DEB78091130190918A
:1001B0001401A0911501B09116010197A109B1098F
:1001C0008093130190931401A0931501B09316012D
:1001D0008091130190911401A0911501B091160125
:1001E000892B8A2B8B2B91F40E94B1008091000106
:1001F00090910101A0910201B0910301809313013C
:1002000090931401A0931501B09316010000DF91A3
:10021000CF91FF91EF91BF91AF919F918F917F917E
:100220006F915F914F913F912F910F9000925B00E2
:100230000F9000925F000F901F901895CF93DF935F
:1002400000D000D0CDB7DEB769837A838B839C83DF
:1002500089819A81AB81BC818093000190930101D7
:10026000A0930201B09303018091000190910101DC
:10027000A0910201B09103018093130190931401A6
:10028000A0931501B093160100000F900F900F90EE
:100290000F90DF91CF910895CF93DF9300D01F92FD
:1002A000CDB7DEB789837B836A8389818A3031F455
:1002B0008A819B81BC018DE00E944C0180EC90E022
:1002C000FC018081882F90E080729927892BB1F3FF
:1002D00086EC90E02981FC01208380E090E00F9083
:1002E0000F900F90DF91CF910895CF93DF9300D0BF
:1002F000CDB7DEB780E290E0FC0180818170898318
:1003000080E290E0FC01808182708A8380911801F4
:1003100090911901CC01A0E0B0E040E050E026E06F
:1003200030E0841B950B2817390708F405C18A5B58
:100330009F4FFC010C946D0385E290E027E0FC01E7
:10034000208383E090E0909319018093180102C10B
:100350008981882351F48A81882339F484E090E0EC
:1003600090931901809318011EC08981882361F43C
:100370008A81882349F086E090E090931901809368
:100380001801109217010FC08981882309F4D9C080
:100390008A81882309F4D5C083E090E09093190105
:1003A00080931801CEC0CDC08981882351F48A8101
:1003B000882339F484E090E0909319018093180128
:1003C0001EC08981882351F08A81882339F083E017
:1003D00090E0909319018093180111C089818823BE
:1003E00009F4B1C08A81882309F0ADC085E090E0AE
:1003F000909319018093180110921701A4C0A3C013
:100400008981882351F08A81882339F083E090E044
:10041000909319018093180129C08981882351F490
:100420008A81882339F081E090E0909319018093CC
:1004300018011CC08981882351F08A81882339F4EE
:1004400082E090E090931901809318010FC0898198
:10045000882309F07AC08A81882309F076C084E075
:1004600090E090931901809318016FC06EC089814C
:10047000882351F08A81882339F083E090E09093BB
:1004800019018093180166C084E090E090931901EF
:10049000809318015FC08981882351F08A81882365
:1004A00039F485E090E090931901809318011BC006
:1004B0008981882351F48A81882339F484E090E08B
:1004C00090931901809318010EC08981882309F443
:1004D0003EC08A818823D9F183E090E0909319018E
:1004E0008093180134C033C08981882351F48A81F4
:1004F000882339F086E090E09093190180931801E9
:100500001AC08981882351F48A81882339F484E0D0
:1005100090E090931901809318010DC08981882380
:10052000C1F08A818823A9F083E090E090931901BB
:10053000809318010EC00DC010921901109218017D
:1005400009C0000007C0000005C0000003C0000093
:1005500001C000008091180190911901833091052C
:1005600009F484C08430910530F48130910569F03C
:100570000297E1F080C08530910571F185309105D9
:1005800030F1069709F44DC076C085E290E0FC0199
:100590008081893008F06CC085E290E025E230E08F
:1005A000F90120812F5FFC01208362C085E290E089
:1005B000FC018081882309F45DC085E290E025E29A
:1005C00030E0F90120812150FC01208353C085E2F5
:1005D00090E0FC0110824FC085E290E0FC01808138
:1005E000882381F0809117018A3061F485E290E0E0
:1005F00025E230E0F90120812150FC012083109296
:10060000170139C085E290E0FC018081882319F44C
:100610001092170130C0809117018F5F80931701EE
:100620002AC085E290E0FC018081893080F48091CD
:1006300017018A3061F485E290E025E230E0F901AB
:1006400020812F5FFC0120831092170114C085E2E6
:1006500090E0FC018081893018F0109217010BC0E6
:10066000809117018F5F8093170105C0000003C0C0
:10067000000001C0000000000F900F90DF91CF91AB
:100680000895CF93DF93CDB7DEB784E290E02FEFEC
:10069000FC01208385E290E0FC01108281E290E081
:1006A000FC01108282E290E02FEFFC01208364E6DF
:1006B00070E080E090E00E941E010E946E001092A7
:1006C0001901109218010E94750100008091120119
:1006D0008823E1F310921201F6CFEE0FFF1F0024E2
:1006E000001C0BBE0790F691E02D0994F894FFCF03
:1006F0000100000000000002000000004C010000AA
:020700000000F7
:00000001FF
